{
  "contractName": "PriceCoin",
  "abi": [
    {
      "inputs": [],
      "stateMutability": "nonpayable",
      "type": "constructor"
    },
    {
      "anonymous": false,
      "inputs": [
        {
          "indexed": false,
          "internalType": "uint256",
          "name": "amount",
          "type": "uint256"
        },
        {
          "indexed": false,
          "internalType": "address",
          "name": "account",
          "type": "address"
        }
      ],
      "name": "Burn",
      "type": "event"
    },
    {
      "anonymous": false,
      "inputs": [
        {
          "indexed": false,
          "internalType": "uint256",
          "name": "amount",
          "type": "uint256"
        },
        {
          "indexed": false,
          "internalType": "address",
          "name": "account",
          "type": "address"
        }
      ],
      "name": "Mint",
      "type": "event"
    },
    {
      "anonymous": false,
      "inputs": [
        {
          "indexed": false,
          "internalType": "uint256",
          "name": "amount",
          "type": "uint256"
        }
      ],
      "name": "Transfer",
      "type": "event"
    },
    {
      "stateMutability": "payable",
      "type": "fallback",
      "payable": true
    },
    {
      "inputs": [
        {
          "internalType": "address",
          "name": "",
          "type": "address"
        }
      ],
      "name": "_balances",
      "outputs": [
        {
          "internalType": "uint256",
          "name": "",
          "type": "uint256"
        }
      ],
      "stateMutability": "view",
      "type": "function",
      "constant": true
    },
    {
      "inputs": [],
      "name": "_decimals",
      "outputs": [
        {
          "internalType": "uint8",
          "name": "",
          "type": "uint8"
        }
      ],
      "stateMutability": "view",
      "type": "function",
      "constant": true
    },
    {
      "inputs": [],
      "name": "_rate",
      "outputs": [
        {
          "internalType": "uint256",
          "name": "",
          "type": "uint256"
        }
      ],
      "stateMutability": "view",
      "type": "function",
      "constant": true
    },
    {
      "stateMutability": "payable",
      "type": "receive",
      "payable": true
    },
    {
      "inputs": [],
      "name": "getTotalSupply",
      "outputs": [
        {
          "internalType": "uint256",
          "name": "",
          "type": "uint256"
        }
      ],
      "stateMutability": "view",
      "type": "function",
      "constant": true
    },
    {
      "inputs": [
        {
          "internalType": "address",
          "name": "addr",
          "type": "address"
        }
      ],
      "name": "balanceOf",
      "outputs": [
        {
          "internalType": "uint256",
          "name": "",
          "type": "uint256"
        }
      ],
      "stateMutability": "view",
      "type": "function",
      "constant": true
    },
    {
      "inputs": [
        {
          "internalType": "address",
          "name": "addr",
          "type": "address"
        }
      ],
      "name": "balanceOfEth",
      "outputs": [
        {
          "internalType": "uint256",
          "name": "",
          "type": "uint256"
        }
      ],
      "stateMutability": "view",
      "type": "function",
      "constant": true
    },
    {
      "inputs": [
        {
          "internalType": "address",
          "name": "to",
          "type": "address"
        },
        {
          "internalType": "uint256",
          "name": "amount",
          "type": "uint256"
        }
      ],
      "name": "transfer",
      "outputs": [
        {
          "internalType": "bool",
          "name": "",
          "type": "bool"
        }
      ],
      "stateMutability": "nonpayable",
      "type": "function"
    }
  ],
  "bytecode": "0x60806040526101f46005553480156200001757600080fd5b506040518060400160405280600981526020017f5072696365436f696e00000000000000000000000000000000000000000000008152506000908051906020019062000065929190620001ab565b506012600260006101000a81548160ff021916908360ff160217905550620000a36103e8670de0b6b3a76400006200019360201b620004611760201c565b60038190555033600460006101000a81548173ffffffffffffffffffffffffffffffffffffffff021916908373ffffffffffffffffffffffffffffffffffffffff16021790555060035460066000600460009054906101000a900473ffffffffffffffffffffffffffffffffffffffff1673ffffffffffffffffffffffffffffffffffffffff1673ffffffffffffffffffffffffffffffffffffffff168152602001908152602001600020819055507f248dd4076d0a389d795107efafd558ce7f31ae37b441ccb9a599c60868f480d560035460405162000185919062000276565b60405180910390a162000387565b60008183620001a39190620002c2565b905092915050565b828054620001b99062000352565b90600052602060002090601f016020900481019282620001dd576000855562000229565b82601f10620001f857805160ff191683800117855562000229565b8280016001018555821562000229579182015b82811115620002285782518255916020019190600101906200020b565b5b5090506200023891906200023c565b5090565b5b80821115620002575760008160009055506001016200023d565b5090565b6000819050919050565b62000270816200025b565b82525050565b60006020820190506200028d600083018462000265565b92915050565b7f4e487b7100000000000000000000000000000000000000000000000000000000600052601160045260246000fd5b6000620002cf826200025b565b9150620002dc836200025b565b9250817fffffffffffffffffffffffffffffffffffffffffffffffffffffffffffffffff048311821515161562000318576200031762000293565b5b828202905092915050565b7f4e487b7100000000000000000000000000000000000000000000000000000000600052602260045260246000fd5b600060028204905060018216806200036b57607f821691505b60208210810362000381576200038062000323565b5b50919050565b6109ce80620003976000396000f3fe6080604052600436106100745760003560e01c806370a082311161004e57806370a082311461012257806383bebced1461015f578063a9059cbb1461018a578063c4e41b22146101c75761007b565b806332424aa31461007d57806340654e14146100a85780636ebcf607146100e55761007b565b3661007b57005b005b34801561008957600080fd5b506100926101f2565b60405161009f91906104a9565b60405180910390f35b3480156100b457600080fd5b506100cf60048036038101906100ca9190610527565b610205565b6040516100dc919061056d565b60405180910390f35b3480156100f157600080fd5b5061010c60048036038101906101079190610527565b61025b565b604051610119919061056d565b60405180910390f35b34801561012e57600080fd5b5061014960048036038101906101449190610527565b610273565b604051610156919061056d565b60405180910390f35b34801561016b57600080fd5b506101746102e0565b604051610181919061056d565b60405180910390f35b34801561019657600080fd5b506101b160048036038101906101ac91906105b4565b6102e6565b6040516101be919061060f565b60405180910390f35b3480156101d357600080fd5b506101dc610457565b6040516101e9919061056d565b60405180910390f35b600260009054906101000a900460ff1681565b6000600554600660008473ffffffffffffffffffffffffffffffffffffffff1673ffffffffffffffffffffffffffffffffffffffff168152602001908152602001600020546102549190610659565b9050919050565b60066020528060005260406000206000915090505481565b60006102d9600660008473ffffffffffffffffffffffffffffffffffffffff1673ffffffffffffffffffffffffffffffffffffffff16815260200190815260200160002054600260009054906101000a900460ff16600a6102d491906107e6565b610477565b9050919050565b60055481565b600081600660003373ffffffffffffffffffffffffffffffffffffffff1673ffffffffffffffffffffffffffffffffffffffff16815260200190815260200160002054101561036a576040517f08c379a00000000000000000000000000000000000000000000000000000000081526004016103619061088e565b60405180910390fd5b81600660003373ffffffffffffffffffffffffffffffffffffffff1673ffffffffffffffffffffffffffffffffffffffff16815260200190815260200160002060008282546103b991906108ae565b9250508190555081600660008573ffffffffffffffffffffffffffffffffffffffff1673ffffffffffffffffffffffffffffffffffffffff168152602001908152602001600020600082825461040f91906108e2565b925050819055507f248dd4076d0a389d795107efafd558ce7f31ae37b441ccb9a599c60868f480d582604051610445919061056d565b60405180910390a16001905092915050565b6000600354905090565b6000818361046f9190610659565b905092915050565b600081836104859190610967565b905092915050565b600060ff82169050919050565b6104a38161048d565b82525050565b60006020820190506104be600083018461049a565b92915050565b600080fd5b600073ffffffffffffffffffffffffffffffffffffffff82169050919050565b60006104f4826104c9565b9050919050565b610504816104e9565b811461050f57600080fd5b50565b600081359050610521816104fb565b92915050565b60006020828403121561053d5761053c6104c4565b5b600061054b84828501610512565b91505092915050565b6000819050919050565b61056781610554565b82525050565b6000602082019050610582600083018461055e565b92915050565b61059181610554565b811461059c57600080fd5b50565b6000813590506105ae81610588565b92915050565b600080604083850312156105cb576105ca6104c4565b5b60006105d985828601610512565b92505060206105ea8582860161059f565b9150509250929050565b60008115159050919050565b610609816105f4565b82525050565b60006020820190506106246000830184610600565b92915050565b7f4e487b7100000000000000000000000000000000000000000000000000000000600052601160045260246000fd5b600061066482610554565b915061066f83610554565b9250817fffffffffffffffffffffffffffffffffffffffffffffffffffffffffffffffff04831182151516156106a8576106a761062a565b5b828202905092915050565b60008160011c9050919050565b6000808291508390505b600185111561070a578086048111156106e6576106e561062a565b5b60018516156106f55780820291505b8081029050610703856106b3565b94506106ca565b94509492505050565b60008261072357600190506107df565b8161073157600090506107df565b8160018114610747576002811461075157610780565b60019150506107df565b60ff8411156107635761076261062a565b5b8360020a91508482111561077a5761077961062a565b5b506107df565b5060208310610133831016604e8410600b84101617156107b55782820a9050838111156107b0576107af61062a565b5b6107df565b6107c284848460016106c0565b925090508184048111156107d9576107d861062a565b5b81810290505b9392505050565b60006107f182610554565b91506107fc8361048d565b92506108297fffffffffffffffffffffffffffffffffffffffffffffffffffffffffffffffff8484610713565b905092915050565b600082825260208201905092915050565b7f42616c616e636520697320736d616c6c6572207468616e20616d6f756e742e00600082015250565b6000610878601f83610831565b915061088382610842565b602082019050919050565b600060208201905081810360008301526108a78161086b565b9050919050565b60006108b982610554565b91506108c483610554565b9250828210156108d7576108d661062a565b5b828203905092915050565b60006108ed82610554565b91506108f883610554565b9250827fffffffffffffffffffffffffffffffffffffffffffffffffffffffffffffffff0382111561092d5761092c61062a565b5b828201905092915050565b7f4e487b7100000000000000000000000000000000000000000000000000000000600052601260045260246000fd5b600061097282610554565b915061097d83610554565b92508261098d5761098c610938565b5b82820490509291505056fea264697066735822122046261a2c87622aae7410ed8c8a631470d397a19bf44e02f263bff4b4db13e15364736f6c634300080d0033",
  "immutableReferences": {},
  "source": "// SPDX-License-Identifier: MIT\npragma solidity >=0.5.0;\n\nimport \"@openzeppelin/contracts/utils/math/SafeMath.sol\";\n\ncontract PriceCoin {\n    string private _name;\n    string private _symbol;\n    uint8 public _decimals;\n    uint256 private _totalSupply;\n    address private _owner;\n\n    uint256 public _rate = 500;\n\n    mapping(address => uint256) public _balances;\n\n    event Transfer(uint256 amount);\n    event Mint(uint256 amount, address account);\n    event Burn(uint256 amount, address account);\n\n    constructor() {\n        _name = \"PriceCoin\";\n        _decimals = 18;\n        _totalSupply = SafeMath.mul(1000, 10**18);\n        _owner = msg.sender;\n        _balances[_owner] = _totalSupply;\n        emit Transfer(_totalSupply);\n    }\n\n    fallback() external payable {}\n\n    receive() external payable {}\n\n    function getTotalSupply() public view returns (uint256) {\n        return _totalSupply;\n    }\n\n    function balanceOf(address addr) public view returns (uint256) {\n        return SafeMath.div(_balances[addr], 10**_decimals);\n    }\n    function balanceOfEth(address addr) public view returns (uint256) {\n        return _balances[addr] * _rate;\n    }\n\n    function transfer(address to, uint256 amount) public returns (bool) {\n        require(\n            _balances[msg.sender] >= amount,\n            \"Balance is smaller than amount.\"\n        );\n        _balances[msg.sender] -= amount;\n        _balances[to] += amount;\n        emit Transfer(amount);\n        return true;\n    }\n\n    function _mint(address account, uint256 amount) internal {\n        _totalSupply = SafeMath.add(_totalSupply, amount);\n        _balances[account] = SafeMath.add(_balances[account], amount);\n        emit Mint(amount, account);\n    }\n\n    function _burn(address account, uint256 amount) internal {\n        _balances[account] = SafeMath.sub(_balances[account], amount);\n        _totalSupply = SafeMath.sub(_totalSupply, amount);\n        emit Burn(amount, account);\n    }\n}\n",
  "sourcePath": "/home/divys/458term/contracts/PriceCoin.sol",
  "compiler": {
    "name": "solc",
    "version": "0.8.13+commit.abaa5c0e.Emscripten.clang"
  },
  "schemaVersion": "3.4.7",
  "updatedAt": "2022-05-01T18:50:10.270Z",
  "networkType": "ethereum",
  "devdoc": {
    "kind": "dev",
    "methods": {},
    "version": 1
  },
  "userdoc": {
    "kind": "user",
    "methods": {},
    "version": 1
  }
}