{
  "contractName": "PriceExchange",
  "abi": [
    {
      "inputs": [],
      "stateMutability": "nonpayable",
      "type": "constructor"
    },
    {
      "anonymous": false,
      "inputs": [
        {
          "indexed": false,
          "internalType": "uint256",
          "name": "amount",
          "type": "uint256"
        },
        {
          "indexed": false,
          "internalType": "address",
          "name": "account",
          "type": "address"
        }
      ],
      "name": "Burn",
      "type": "event"
    },
    {
      "anonymous": false,
      "inputs": [
        {
          "indexed": false,
          "internalType": "uint256",
          "name": "priceRequested",
          "type": "uint256"
        },
        {
          "indexed": false,
          "internalType": "uint256",
          "name": "etherPaid",
          "type": "uint256"
        }
      ],
      "name": "Buy",
      "type": "event"
    },
    {
      "anonymous": false,
      "inputs": [
        {
          "indexed": false,
          "internalType": "uint256",
          "name": "amount",
          "type": "uint256"
        },
        {
          "indexed": false,
          "internalType": "address",
          "name": "account",
          "type": "address"
        }
      ],
      "name": "Mint",
      "type": "event"
    },
    {
      "anonymous": false,
      "inputs": [
        {
          "indexed": false,
          "internalType": "bool",
          "name": "won",
          "type": "bool"
        },
        {
          "indexed": false,
          "internalType": "uint256",
          "name": "payout",
          "type": "uint256"
        },
        {
          "indexed": false,
          "internalType": "uint256",
          "name": "randomNum",
          "type": "uint256"
        }
      ],
      "name": "Outcome",
      "type": "event"
    },
    {
      "anonymous": false,
      "inputs": [
        {
          "indexed": false,
          "internalType": "uint256",
          "name": "pricePaid",
          "type": "uint256"
        },
        {
          "indexed": false,
          "internalType": "uint256",
          "name": "etherRequested",
          "type": "uint256"
        }
      ],
      "name": "Sell",
      "type": "event"
    },
    {
      "anonymous": false,
      "inputs": [
        {
          "indexed": false,
          "internalType": "uint256",
          "name": "amount",
          "type": "uint256"
        }
      ],
      "name": "Transfer",
      "type": "event"
    },
    {
      "stateMutability": "payable",
      "type": "fallback",
      "payable": true
    },
    {
      "inputs": [
        {
          "internalType": "address",
          "name": "",
          "type": "address"
        }
      ],
      "name": "_balances",
      "outputs": [
        {
          "internalType": "uint256",
          "name": "",
          "type": "uint256"
        }
      ],
      "stateMutability": "view",
      "type": "function",
      "constant": true
    },
    {
      "inputs": [],
      "name": "_decimals",
      "outputs": [
        {
          "internalType": "uint8",
          "name": "",
          "type": "uint8"
        }
      ],
      "stateMutability": "view",
      "type": "function",
      "constant": true
    },
    {
      "inputs": [],
      "name": "_rate",
      "outputs": [
        {
          "internalType": "uint256",
          "name": "",
          "type": "uint256"
        }
      ],
      "stateMutability": "view",
      "type": "function",
      "constant": true
    },
    {
      "inputs": [
        {
          "internalType": "address",
          "name": "addr",
          "type": "address"
        }
      ],
      "name": "balanceOf",
      "outputs": [
        {
          "internalType": "uint256",
          "name": "",
          "type": "uint256"
        }
      ],
      "stateMutability": "view",
      "type": "function",
      "constant": true
    },
    {
      "inputs": [
        {
          "internalType": "address",
          "name": "addr",
          "type": "address"
        }
      ],
      "name": "balanceOfEth",
      "outputs": [
        {
          "internalType": "uint256",
          "name": "",
          "type": "uint256"
        }
      ],
      "stateMutability": "view",
      "type": "function",
      "constant": true
    },
    {
      "inputs": [],
      "name": "getTotalSupply",
      "outputs": [
        {
          "internalType": "uint256",
          "name": "",
          "type": "uint256"
        }
      ],
      "stateMutability": "view",
      "type": "function",
      "constant": true
    },
    {
      "inputs": [
        {
          "internalType": "address",
          "name": "to",
          "type": "address"
        },
        {
          "internalType": "uint256",
          "name": "amount",
          "type": "uint256"
        }
      ],
      "name": "transfer",
      "outputs": [
        {
          "internalType": "bool",
          "name": "",
          "type": "bool"
        }
      ],
      "stateMutability": "nonpayable",
      "type": "function"
    },
    {
      "stateMutability": "payable",
      "type": "receive",
      "payable": true
    },
    {
      "inputs": [],
      "name": "buyPrice",
      "outputs": [],
      "stateMutability": "payable",
      "type": "function",
      "payable": true
    },
    {
      "inputs": [
        {
          "internalType": "address payable",
          "name": "_to",
          "type": "address"
        },
        {
          "internalType": "uint256",
          "name": "amount",
          "type": "uint256"
        }
      ],
      "name": "sellPrice",
      "outputs": [],
      "stateMutability": "payable",
      "type": "function",
      "payable": true
    },
    {
      "inputs": [
        {
          "internalType": "address",
          "name": "_to",
          "type": "address"
        },
        {
          "internalType": "uint256",
          "name": "betAmount",
          "type": "uint256"
        },
        {
          "internalType": "int256",
          "name": "guess",
          "type": "int256"
        },
        {
          "internalType": "int256",
          "name": "leeway",
          "type": "int256"
        }
      ],
      "name": "play",
      "outputs": [],
      "stateMutability": "nonpayable",
      "type": "function"
    }
  ],
  "bytecode": "0x60806040526101f46005553480156200001757600080fd5b506040518060400160405280600981526020017f5072696365436f696e00000000000000000000000000000000000000000000008152506000908051906020019062000065929190620001b3565b506012600260006101000a81548160ff021916908360ff160217905550620000a36103e8670de0b6b3a76400006200019b60201b6200091a1760201c565b60038190555033600460006101000a81548173ffffffffffffffffffffffffffffffffffffffff021916908373ffffffffffffffffffffffffffffffffffffffff16021790555060035460066000600460009054906101000a900473ffffffffffffffffffffffffffffffffffffffff1673ffffffffffffffffffffffffffffffffffffffff1673ffffffffffffffffffffffffffffffffffffffff168152602001908152602001600020819055507f248dd4076d0a389d795107efafd558ce7f31ae37b441ccb9a599c60868f480d56003546040516200018591906200027e565b60405180910390a160006007819055506200038f565b60008183620001ab9190620002ca565b905092915050565b828054620001c1906200035a565b90600052602060002090601f016020900481019282620001e5576000855562000231565b82601f106200020057805160ff191683800117855562000231565b8280016001018555821562000231579182015b828111156200023057825182559160200191906001019062000213565b5b50905062000240919062000244565b5090565b5b808211156200025f57600081600090555060010162000245565b5090565b6000819050919050565b620002788162000263565b82525050565b60006020820190506200029560008301846200026d565b92915050565b7f4e487b7100000000000000000000000000000000000000000000000000000000600052601160045260246000fd5b6000620002d78262000263565b9150620002e48362000263565b9250817fffffffffffffffffffffffffffffffffffffffffffffffffffffffffffffffff048311821515161562000320576200031f6200029b565b5b828202905092915050565b7f4e487b7100000000000000000000000000000000000000000000000000000000600052602260045260246000fd5b600060028204905060018216806200037357607f821691505b6020821081036200038957620003886200032b565b5b50919050565b611add806200039f6000396000f3fe6080604052600436106100955760003560e01c806383bebced1161005957806383bebced146101a95780638620410b146101d4578063a9059cbb146101de578063c4e41b221461021b578063f2563a6f146102465761009c565b80630199f3e91461009e57806332424aa3146100c757806340654e14146100f25780636ebcf6071461012f57806370a082311461016c5761009c565b3661009c57005b005b3480156100aa57600080fd5b506100c560048036038101906100c09190610e8e565b610262565b005b3480156100d357600080fd5b506100dc610460565b6040516100e99190610f11565b60405180910390f35b3480156100fe57600080fd5b5061011960048036038101906101149190610f2c565b610473565b6040516101269190610f68565b60405180910390f35b34801561013b57600080fd5b5061015660048036038101906101519190610f2c565b6104c9565b6040516101639190610f68565b60405180910390f35b34801561017857600080fd5b50610193600480360381019061018e9190610f2c565b6104e1565b6040516101a09190610f68565b60405180910390f35b3480156101b557600080fd5b506101be61054e565b6040516101cb9190610f68565b60405180910390f35b6101dc610554565b005b3480156101ea57600080fd5b5061020560048036038101906102009190610f83565b6105ee565b6040516102129190610fde565b60405180910390f35b34801561022757600080fd5b5061023061075f565b60405161023d9190610f68565b60405180910390f35b610260600480360381019061025b9190611037565b610769565b005b60018212158015610274575060648213155b6102b3576040517f08c379a00000000000000000000000000000000000000000000000000000000081526004016102aa906110fa565b60405180910390fd5b600081121580156102c5575060188113155b610304576040517f08c379a00000000000000000000000000000000000000000000000000000000081526004016102fb9061118c565b60405180910390fd5b600061032b84600260009054906101000a900460ff16600a610326919061130e565b61091a565b905080600660008773ffffffffffffffffffffffffffffffffffffffff1673ffffffffffffffffffffffffffffffffffffffff1681526020019081526020016000205410156103af576040517f08c379a00000000000000000000000000000000000000000000000000000000081526004016103a6906113f1565b60405180910390fd5b6103b98582610930565b6000806103c68585610a0b565b9150915081156103e4576103e3876103de8587610b62565b610c3a565b5b7fd23ed7233f1c0c85a54878fe8c2a2024d511ceef002f3eea582ed24c7a0739a18261043f856104148789610b62565b61041e9190611411565b600260009054906101000a900460ff16600a61043a919061130e565b610d15565b8360405161044f93929190611445565b60405180910390a150505050505050565b600260009054906101000a900460ff1681565b6000600554600660008473ffffffffffffffffffffffffffffffffffffffff1673ffffffffffffffffffffffffffffffffffffffff168152602001908152602001600020546104c2919061147c565b9050919050565b60066020528060005260406000206000915090505481565b6000610547600660008473ffffffffffffffffffffffffffffffffffffffff1673ffffffffffffffffffffffffffffffffffffffff16815260200190815260200160002054600260009054906101000a900460ff16600a610542919061130e565b610d15565b9050919050565b60055481565b6000341015610598576040517f08c379a000000000000000000000000000000000000000000000000000000000815260040161058f90611522565b60405180910390fd5b60006105a63460055461091a565b90506105b23382610c3a565b7f76911b5d8081a7d290dd15cdb0e39e9513ac7e8d1cce3275a7cf1380889abacc81346040516105e3929190611542565b60405180910390a150565b600081600660003373ffffffffffffffffffffffffffffffffffffffff1673ffffffffffffffffffffffffffffffffffffffff168152602001908152602001600020541015610672576040517f08c379a0000000000000000000000000000000000000000000000000000000008152600401610669906115b7565b60405180910390fd5b81600660003373ffffffffffffffffffffffffffffffffffffffff1673ffffffffffffffffffffffffffffffffffffffff16815260200190815260200160002060008282546106c19190611411565b9250508190555081600660008573ffffffffffffffffffffffffffffffffffffffff1673ffffffffffffffffffffffffffffffffffffffff168152602001908152602001600020600082825461071791906115d7565b925050819055507f248dd4076d0a389d795107efafd558ce7f31ae37b441ccb9a599c60868f480d58260405161074d9190610f68565b60405180910390a16001905092915050565b6000600354905090565b600061079082600260009054906101000a900460ff16600a61078b919061130e565b61091a565b905060006107a082600554610d15565b905081600660008673ffffffffffffffffffffffffffffffffffffffff1673ffffffffffffffffffffffffffffffffffffffff168152602001908152602001600020541015610824576040517f08c379a000000000000000000000000000000000000000000000000000000000815260040161081b906116c5565b60405180910390fd5b61082e8483610930565b60008473ffffffffffffffffffffffffffffffffffffffff168260405161085490611716565b60006040518083038185875af1925050503d8060008114610891576040519150601f19603f3d011682016040523d82523d6000602084013e610896565b606091505b50509050806108da576040517f08c379a00000000000000000000000000000000000000000000000000000000081526004016108d190611777565b60405180910390fd5b7f8ed05978f1a2453a08590ad9c67430e04d0b816de1318b575d1c28b7965ff5d5838360405161090b929190611542565b60405180910390a15050505050565b60008183610928919061147c565b905092915050565b610979600660008473ffffffffffffffffffffffffffffffffffffffff1673ffffffffffffffffffffffffffffffffffffffff1681526020019081526020016000205482610d2b565b600660008473ffffffffffffffffffffffffffffffffffffffff1673ffffffffffffffffffffffffffffffffffffffff168152602001908152602001600020819055506109c860035482610d2b565b6003819055507ff6554c3a5d28e08c120b5a69c7edbaf52f935bd2596a60b8a18e282cd257cddb81836040516109ff9291906117a6565b60405180910390a15050565b60008060008385610a1c91906117cf565b905060008486610a2c9190611863565b9050600060648313610a3f576000610a42565b60015b9050600060018312610a55576000610a58565b60015b905081610a655783610a73565b606484610a729190611926565b5b935080610a805782610a9a565b606483610a8d9190611926565b6064610a9991906117cf565b5b92506000610aa6610d41565b905082158015610ab4575081155b15610ad857838112158015610ac95750848113155b81965096505050505050610b5b565b828015610ae3575081155b15610b1357838112158015610af9575060648113155b80610b045750848113155b81965096505050505050610b5b565b82158015610b1e5750815b15610b4e57848113158015610b34575060018112155b80610b3f5750838112155b81965096505050505050610b5b565b6001819650965050505050505b9250929050565b6000808203610b8a5782836050610b79919061147c565b610b8391906115d7565b9050610c34565b6000610ba1610b9a84600261091a565b6001610da9565b90506000610bdd610bd7610bb6606485610d2b565b600260009054906101000a900460ff16600a610bd2919061130e565b61091a565b83610d15565b90506000610bfe610bf883610bf3856014610d15565b610d2b565b8761091a565b9050610c2e610c2882600260009054906101000a900460ff16600a610c23919061130e565b610d15565b87610da9565b93505050505b92915050565b610c4660035482610da9565b600381905550610c95600660008473ffffffffffffffffffffffffffffffffffffffff1673ffffffffffffffffffffffffffffffffffffffff1681526020019081526020016000205482610da9565b600660008473ffffffffffffffffffffffffffffffffffffffff1673ffffffffffffffffffffffffffffffffffffffff168152602001908152602001600020819055507ff3cea5493d790af0133817606f7350a91d7f154ea52eaa79d179d4d231e501028183604051610d099291906117a6565b60405180910390a15050565b60008183610d239190611957565b905092915050565b60008183610d399190611411565b905092915050565b60008060016064423360076000815480929190610d5d90611988565b91905055604051602001610d7393929190611a39565b6040516020818303038152906040528051906020012060001c610d969190611a76565b610da091906115d7565b90508091505090565b60008183610db791906115d7565b905092915050565b600080fd5b600073ffffffffffffffffffffffffffffffffffffffff82169050919050565b6000610def82610dc4565b9050919050565b610dff81610de4565b8114610e0a57600080fd5b50565b600081359050610e1c81610df6565b92915050565b6000819050919050565b610e3581610e22565b8114610e4057600080fd5b50565b600081359050610e5281610e2c565b92915050565b6000819050919050565b610e6b81610e58565b8114610e7657600080fd5b50565b600081359050610e8881610e62565b92915050565b60008060008060808587031215610ea857610ea7610dbf565b5b6000610eb687828801610e0d565b9450506020610ec787828801610e43565b9350506040610ed887828801610e79565b9250506060610ee987828801610e79565b91505092959194509250565b600060ff82169050919050565b610f0b81610ef5565b82525050565b6000602082019050610f266000830184610f02565b92915050565b600060208284031215610f4257610f41610dbf565b5b6000610f5084828501610e0d565b91505092915050565b610f6281610e22565b82525050565b6000602082019050610f7d6000830184610f59565b92915050565b60008060408385031215610f9a57610f99610dbf565b5b6000610fa885828601610e0d565b9250506020610fb985828601610e43565b9150509250929050565b60008115159050919050565b610fd881610fc3565b82525050565b6000602082019050610ff36000830184610fcf565b92915050565b600061100482610dc4565b9050919050565b61101481610ff9565b811461101f57600080fd5b50565b6000813590506110318161100b565b92915050565b6000806040838503121561104e5761104d610dbf565b5b600061105c85828601611022565b925050602061106d85828601610e43565b9150509250929050565b600082825260208201905092915050565b7f47756573732068617320746f206265206265747765656e203120616e6420313060008201527f302e000000000000000000000000000000000000000000000000000000000000602082015250565b60006110e4602283611077565b91506110ef82611088565b604082019050919050565b60006020820190508181036000830152611113816110d7565b9050919050565b7f4c65657761792068617320746f206265206265747765656e203020616e64203260008201527f3400000000000000000000000000000000000000000000000000000000000000602082015250565b6000611176602183611077565b91506111818261111a565b604082019050919050565b600060208201905081810360008301526111a581611169565b9050919050565b7f4e487b7100000000000000000000000000000000000000000000000000000000600052601160045260246000fd5b60008160011c9050919050565b6000808291508390505b60018511156112325780860481111561120e5761120d6111ac565b5b600185161561121d5780820291505b808102905061122b856111db565b94506111f2565b94509492505050565b60008261124b5760019050611307565b816112595760009050611307565b816001811461126f5760028114611279576112a8565b6001915050611307565b60ff84111561128b5761128a6111ac565b5b8360020a9150848211156112a2576112a16111ac565b5b50611307565b5060208310610133831016604e8410600b84101617156112dd5782820a9050838111156112d8576112d76111ac565b5b611307565b6112ea84848460016111e8565b92509050818404811115611301576113006111ac565b5b81810290505b9392505050565b600061131982610e22565b915061132483610ef5565b92506113517fffffffffffffffffffffffffffffffffffffffffffffffffffffffffffffffff848461123b565b905092915050565b7f596f75206d75737420686f6c6420616e20657175616c206f72206c657373657260008201527f2076616c7565206f6620707269636520636f696e20746f20626574207468697360208201527f206d756368000000000000000000000000000000000000000000000000000000604082015250565b60006113db604583611077565b91506113e682611359565b606082019050919050565b6000602082019050818103600083015261140a816113ce565b9050919050565b600061141c82610e22565b915061142783610e22565b92508282101561143a576114396111ac565b5b828203905092915050565b600060608201905061145a6000830186610fcf565b6114676020830185610f59565b6114746040830184610f59565b949350505050565b600061148782610e22565b915061149283610e22565b9250817fffffffffffffffffffffffffffffffffffffffffffffffffffffffffffffffff04831182151516156114cb576114ca6111ac565b5b828202905092915050565b7f596f75206d7573742073656e6420736f6d652065746865722e00000000000000600082015250565b600061150c601983611077565b9150611517826114d6565b602082019050919050565b6000602082019050818103600083015261153b816114ff565b9050919050565b60006040820190506115576000830185610f59565b6115646020830184610f59565b9392505050565b7f42616c616e636520697320736d616c6c6572207468616e20616d6f756e742e00600082015250565b60006115a1601f83611077565b91506115ac8261156b565b602082019050919050565b600060208201905081810360008301526115d081611594565b9050919050565b60006115e282610e22565b91506115ed83610e22565b9250827fffffffffffffffffffffffffffffffffffffffffffffffffffffffffffffffff03821115611622576116216111ac565b5b828201905092915050565b7f596f75206d75737420686f6c6420616e20657175616c206f72206c657373657260008201527f2076616c7565206f6620707269636520636f696e20746f2073656c6c2074686960208201527f73206d7563682e00000000000000000000000000000000000000000000000000604082015250565b60006116af604783611077565b91506116ba8261162d565b606082019050919050565b600060208201905081810360008301526116de816116a2565b9050919050565b600081905092915050565b50565b60006117006000836116e5565b915061170b826116f0565b600082019050919050565b6000611721826116f3565b9150819050919050565b7f5472616e73616374696f6e206661696c65640000000000000000000000000000600082015250565b6000611761601283611077565b915061176c8261172b565b602082019050919050565b6000602082019050818103600083015261179081611754565b9050919050565b6117a081610de4565b82525050565b60006040820190506117bb6000830185610f59565b6117c86020830184611797565b9392505050565b60006117da82610e58565b91506117e583610e58565b9250817f7fffffffffffffffffffffffffffffffffffffffffffffffffffffffffffffff038313600083121516156118205761181f6111ac565b5b817f8000000000000000000000000000000000000000000000000000000000000000038312600083121615611858576118576111ac565b5b828201905092915050565b600061186e82610e58565b915061187983610e58565b9250827f8000000000000000000000000000000000000000000000000000000000000000018212600084121516156118b4576118b36111ac565b5b827f7fffffffffffffffffffffffffffffffffffffffffffffffffffffffffffffff0182136000841216156118ec576118eb6111ac565b5b828203905092915050565b7f4e487b7100000000000000000000000000000000000000000000000000000000600052601260045260246000fd5b600061193182610e58565b915061193c83610e58565b92508261194c5761194b6118f7565b5b828207905092915050565b600061196282610e22565b915061196d83610e22565b92508261197d5761197c6118f7565b5b828204905092915050565b600061199382610e22565b91507fffffffffffffffffffffffffffffffffffffffffffffffffffffffffffffffff82036119c5576119c46111ac565b5b600182019050919050565b6000819050919050565b6119eb6119e682610e22565b6119d0565b82525050565b60008160601b9050919050565b6000611a09826119f1565b9050919050565b6000611a1b826119fe565b9050919050565b611a33611a2e82610de4565b611a10565b82525050565b6000611a4582866119da565b602082019150611a558285611a22565b601482019150611a6582846119da565b602082019150819050949350505050565b6000611a8182610e22565b9150611a8c83610e22565b925082611a9c57611a9b6118f7565b5b82820690509291505056fea264697066735822122091759449484ea9712ca3994515457805d958f1e5f561a1e97ca297cb302c0a9164736f6c634300080d0033",
  "immutableReferences": {},
  "source": "// SPDX-License-Identifier: MIT\npragma solidity >=0.5.0;\n\nimport \"./PriceCoin.sol\";\nimport \"@openzeppelin/contracts/utils/math/SafeMath.sol\";\n\ncontract PriceExchange is PriceCoin {\n    uint256 private _randNonce;\n\n    event Buy(uint256 priceRequested, uint256 etherPaid);\n    event Sell(uint256 pricePaid, uint256 etherRequested);\n    event Outcome(bool won, uint256 payout, uint256 randomNum);\n    constructor() PriceCoin() {\n        _randNonce = 0;\n    }\n\n    function buyPrice() external payable {\n        require(msg.value >= 0, \"You must send some ether.\");\n        uint256 priceRequested = SafeMath.mul(msg.value, _rate);\n        _mint(msg.sender, priceRequested);\n        emit Buy(priceRequested, msg.value);\n    }\n\n    function sellPrice(address payable _to, uint256 amount) external payable {\n        uint256 priceToSell = SafeMath.mul(amount, 10**_decimals);\n        uint256 etherRequested = SafeMath.div(priceToSell, _rate);\n\n        require(_balances[_to] >= priceToSell, \"You must hold an equal or lesser value of price coin to sell this much.\");\n        _burn(_to, priceToSell);\n        (bool paid,) = _to.call{value: etherRequested }(\"\");\n        require(paid, \"Transaction failed\");\n        emit Sell(priceToSell, etherRequested);\n    }\n\n    // Gets random number from 1-100 -- DETERMINISTIC (not completely random)\n    function getRandomNumber() internal returns (int256) {\n        uint256 randomNum = (uint256(keccak256(abi.encodePacked(block.timestamp, msg.sender, _randNonce++))) % 100) + 1;\n        return int256(randomNum);\n        // return 100; // used for testing\n    }\n\n    // Gets payout if number was within leeway. This method should also reimburse original bet amount.\n    // Follows same logic seen in app/src/Web-GUI/script.js file\n    function getPayout(uint256 betAmount, int256 leeway) internal view returns (uint256) {\n        if (leeway == 0) return (80 * betAmount) + betAmount;\n        \n        uint256 range = SafeMath.add(SafeMath.mul(uint256(leeway), 2), 1);\n        uint256 odds = SafeMath.div(SafeMath.mul(SafeMath.sub(100, range), 10**_decimals), range);\n        uint256 retOdds = SafeMath.mul(SafeMath.sub(odds, SafeMath.div(odds, 20)), betAmount);\n        return SafeMath.add(SafeMath.div(retOdds, 10**_decimals), betAmount); // + betAmount reimburses what was burned\n    }\n\n    // Returns whether guess was in the leeway range and the random number.\n    function guessNumber(int256 guess, int256 leeway) internal returns(bool, uint256) {\n        int256 upperBound = guess + leeway;\n        int256 lowerBound = guess - leeway;\n\n        bool upperWrap = upperBound > 100 ? true : false;\n        bool lowerWrap = lowerBound < 1 ? true : false;\n\n        // Update bounds if there is a wrap.\n        upperBound = upperWrap ? (upperBound % 100) : upperBound;\n        lowerBound = lowerWrap ? 100 + (lowerBound % 100) : lowerBound;\n        \n        int256 randomNum = getRandomNumber();\n\n        // No wrap arounds\n        if (!upperWrap && !lowerWrap) {\n            return ((randomNum >= lowerBound && randomNum <= upperBound), uint256(randomNum));\n        }\n        else if (upperWrap && !lowerWrap) {\n            return (((randomNum >= lowerBound) && (randomNum <= 100)) || (randomNum <= upperBound), uint256(randomNum));\n        }\n        else if (!upperWrap && lowerWrap) {\n            return (((randomNum <= upperBound) && (randomNum >= 1)) || (randomNum >= lowerBound), uint256(randomNum));\n        } \n        else { // Redundant if we limit leeway to 0-24\n            return (true, uint256(randomNum));\n        }\n    }\n\n    function play(address _to, uint256 betAmount, int256 guess, int256 leeway) external {\n        require(guess >= 1 && guess <= 100, \"Guess has to be between 1 and 100.\");\n        require(leeway >= 0 && leeway <= 24, \"Leeway has to be between 0 and 24\");\n\n        uint256 priceToBet = SafeMath.mul(betAmount, 10**_decimals);\n        require (_balances[_to] >= priceToBet,\"You must hold an equal or lesser value of price coin to bet this much\");\n\n        // Burn before running to prevent re-entry attacks.\n        _burn(_to, priceToBet);\n\n        (bool won, uint256 randomNum) = guessNumber(guess, leeway); \n\n        if (won) {\n            _mint(_to, getPayout(priceToBet, leeway));\n        }\n        emit Outcome(won, SafeMath.div(getPayout(priceToBet, leeway) - priceToBet, 10**_decimals), randomNum);\n    }\n}",
  "sourcePath": "/home/divys/458term/contracts/PriceExchange.sol",
  "compiler": {
    "name": "solc",
    "version": "0.8.13+commit.abaa5c0e.Emscripten.clang"
  },
  "schemaVersion": "3.4.7",
  "updatedAt": "2022-05-01T18:50:10.281Z",
  "networkType": "ethereum",
  "devdoc": {
    "kind": "dev",
    "methods": {},
    "version": 1
  },
  "userdoc": {
    "kind": "user",
    "methods": {},
    "version": 1
  }
}